:0300000002087E75
:0C087E00787FE4F6D8FD758107020800C1
:1008000012085775900512085A75900612085A7505
:10081000900A12085A12085775900512085A7590D6
:100820000612085A75900A12085A75900A12085A48
:1008300075900612085A75900512085A12085775D5
:10084000900A12085A75900612085A7590051208F7
:070850005A120857020800CC
:070857007590097FC87E00C7
:10085E00E4FDFCC3ED9FEC9E5015E4FBFA0BBB00D0
:0F086E00010ABA01F8BBF4F50DBD00010C80E4DE
:01087D002258
:00000001FF
